{
  "_format": "hh-sol-artifact-1",
  "contractName": "BuyMeACoffee",
  "sourceName": "contracts/BuyMeACoffee.sol",
  "abi": [
    {
      "inputs": [],
      "stateMutability": "nonpayable",
      "type": "constructor"
    },
    {
      "anonymous": false,
      "inputs": [
        {
          "indexed": true,
          "internalType": "address",
          "name": "from",
          "type": "address"
        },
        {
          "indexed": false,
          "internalType": "uint256",
          "name": "amount",
          "type": "uint256"
        },
        {
          "indexed": false,
          "internalType": "uint256",
          "name": "timestamp",
          "type": "uint256"
        },
        {
          "indexed": false,
          "internalType": "string",
          "name": "name",
          "type": "string"
        },
        {
          "indexed": false,
          "internalType": "string",
          "name": "message",
          "type": "string"
        }
      ],
      "name": "NewMemoEvent",
      "type": "event"
    },
    {
      "inputs": [
        {
          "internalType": "string",
          "name": "_name",
          "type": "string"
        },
        {
          "internalType": "string",
          "name": "_message",
          "type": "string"
        }
      ],
      "name": "buyCoffee",
      "outputs": [],
      "stateMutability": "payable",
      "type": "function"
    },
    {
      "inputs": [],
      "name": "getMemos",
      "outputs": [
        {
          "components": [
            {
              "internalType": "address",
              "name": "from",
              "type": "address"
            },
            {
              "internalType": "uint256",
              "name": "timestamp",
              "type": "uint256"
            },
            {
              "internalType": "uint256",
              "name": "amount",
              "type": "uint256"
            },
            {
              "internalType": "string",
              "name": "name",
              "type": "string"
            },
            {
              "internalType": "string",
              "name": "message",
              "type": "string"
            }
          ],
          "internalType": "struct BuyMeACoffee.Memo[]",
          "name": "",
          "type": "tuple[]"
        }
      ],
      "stateMutability": "view",
      "type": "function"
    },
    {
      "inputs": [],
      "name": "withdrawTips",
      "outputs": [],
      "stateMutability": "nonpayable",
      "type": "function"
    }
  ],
  "bytecode": "0x608060405234801561001057600080fd5b5033600160006101000a81548173ffffffffffffffffffffffffffffffffffffffff021916908373ffffffffffffffffffffffffffffffffffffffff160217905550610baf806100616000396000f3fe6080604052600436106100345760003560e01c8063204206e1146100395780633aaa74b214610055578063865c51721461006c575b600080fd5b610053600480360381019061004e91906106b3565b610097565b005b34801561006157600080fd5b5061006a610231565b005b34801561007857600080fd5b506100816102c9565b60405161008e919061094c565b60405180910390f35b600034116100da576040517f08c379a00000000000000000000000000000000000000000000000000000000081526004016100d1906109cb565b60405180910390fd5b60006040518060a001604052803373ffffffffffffffffffffffffffffffffffffffff16815260200142815260200134815260200184815260200183815250908060018154018082558091505060019003906000526020600020906005020160009091909190915060008201518160000160006101000a81548173ffffffffffffffffffffffffffffffffffffffff021916908373ffffffffffffffffffffffffffffffffffffffff160217905550602082015181600101556040820151816002015560608201518160030190805190602001906101b99291906104b6565b5060808201518160040190805190602001906101d69291906104b6565b5050503373ffffffffffffffffffffffffffffffffffffffff167fb04ebb66c628c9568a19a2ae29cff45b0fa5faeff2972609a2f32a4811bdc77c423485856040516102259493929190610a33565b60405180910390a25050565b600160009054906101000a900473ffffffffffffffffffffffffffffffffffffffff1673ffffffffffffffffffffffffffffffffffffffff166108fc479081150290604051600060405180830381858888f193505050506102c7576040517f08c379a00000000000000000000000000000000000000000000000000000000081526004016102be90610af8565b60405180910390fd5b565b60606000805480602002602001604051908101604052809291908181526020016000905b828210156104ad57838290600052602060002090600502016040518060a00160405290816000820160009054906101000a900473ffffffffffffffffffffffffffffffffffffffff1673ffffffffffffffffffffffffffffffffffffffff1673ffffffffffffffffffffffffffffffffffffffff168152602001600182015481526020016002820154815260200160038201805461038a90610b47565b80601f01602080910402602001604051908101604052809291908181526020018280546103b690610b47565b80156104035780601f106103d857610100808354040283529160200191610403565b820191906000526020600020905b8154815290600101906020018083116103e657829003601f168201915b5050505050815260200160048201805461041c90610b47565b80601f016020809104026020016040519081016040528092919081815260200182805461044890610b47565b80156104955780601f1061046a57610100808354040283529160200191610495565b820191906000526020600020905b81548152906001019060200180831161047857829003601f168201915b505050505081525050815260200190600101906102ed565b50505050905090565b8280546104c290610b47565b90600052602060002090601f0160209004810192826104e4576000855561052b565b82601f106104fd57805160ff191683800117855561052b565b8280016001018555821561052b579182015b8281111561052a57825182559160200191906001019061050f565b5b509050610538919061053c565b5090565b5b8082111561055557600081600090555060010161053d565b5090565b6000604051905090565b600080fd5b600080fd5b600080fd5b600080fd5b6000601f19601f8301169050919050565b7f4e487b7100000000000000000000000000000000000000000000000000000000600052604160045260246000fd5b6105c082610577565b810181811067ffffffffffffffff821117156105df576105de610588565b5b80604052505050565b60006105f2610559565b90506105fe82826105b7565b919050565b600067ffffffffffffffff82111561061e5761061d610588565b5b61062782610577565b9050602081019050919050565b82818337600083830152505050565b600061065661065184610603565b6105e8565b90508281526020810184848401111561067257610671610572565b5b61067d848285610634565b509392505050565b600082601f83011261069a5761069961056d565b5b81356106aa848260208601610643565b91505092915050565b600080604083850312156106ca576106c9610563565b5b600083013567ffffffffffffffff8111156106e8576106e7610568565b5b6106f485828601610685565b925050602083013567ffffffffffffffff81111561071557610714610568565b5b61072185828601610685565b9150509250929050565b600081519050919050565b600082825260208201905092915050565b6000819050602082019050919050565b600073ffffffffffffffffffffffffffffffffffffffff82169050919050565b600061078282610757565b9050919050565b61079281610777565b82525050565b6000819050919050565b6107ab81610798565b82525050565b600081519050919050565b600082825260208201905092915050565b60005b838110156107eb5780820151818401526020810190506107d0565b838111156107fa576000848401525b50505050565b600061080b826107b1565b61081581856107bc565b93506108258185602086016107cd565b61082e81610577565b840191505092915050565b600060a0830160008301516108516000860182610789565b50602083015161086460208601826107a2565b50604083015161087760408601826107a2565b506060830151848203606086015261088f8282610800565b915050608083015184820360808601526108a98282610800565b9150508091505092915050565b60006108c28383610839565b905092915050565b6000602082019050919050565b60006108e28261072b565b6108ec8185610736565b9350836020820285016108fe85610747565b8060005b8581101561093a578484038952815161091b85826108b6565b9450610926836108ca565b925060208a01995050600181019050610902565b50829750879550505050505092915050565b6000602082019050818103600083015261096681846108d7565b905092915050565b600082825260208201905092915050565b7f63616e27742062757920636f6666656520776974682030204554480000000000600082015250565b60006109b5601b8361096e565b91506109c08261097f565b602082019050919050565b600060208201905081810360008301526109e4816109a8565b9050919050565b6109f481610798565b82525050565b6000610a05826107b1565b610a0f818561096e565b9350610a1f8185602086016107cd565b610a2881610577565b840191505092915050565b6000608082019050610a4860008301876109eb565b610a5560208301866109eb565b8181036040830152610a6781856109fa565b90508181036060830152610a7b81846109fa565b905095945050505050565b7f6572726f722073656e64696e6720746865206d6f6e657920746f20746865206360008201527f6f6e7472616374206f776e657200000000000000000000000000000000000000602082015250565b6000610ae2602d8361096e565b9150610aed82610a86565b604082019050919050565b60006020820190508181036000830152610b1181610ad5565b9050919050565b7f4e487b7100000000000000000000000000000000000000000000000000000000600052602260045260246000fd5b60006002820490506001821680610b5f57607f821691505b60208210811415610b7357610b72610b18565b5b5091905056fea26469706673582212208f235bad74f8725a19e18fcb3b5d4094999f4fae9087044fdc450e29aed3a4ce64736f6c63430008090033",
  "linkReferences": {},
  "deployedLinkReferences": {}
}